{
  "_format": "hh-sol-artifact-1",
  "contractName": "XYZTokenSale",
  "sourceName": "contracts/XYZTOKENSALE.sol",
  "abi": [
    {
      "inputs": [
        {
          "internalType": "address",
          "name": "_tokenAddress",
          "type": "address"
        }
      ],
      "stateMutability": "nonpayable",
      "type": "constructor"
    },
    {
      "anonymous": false,
      "inputs": [
        {
          "indexed": true,
          "internalType": "address",
          "name": "previousOwner",
          "type": "address"
        },
        {
          "indexed": true,
          "internalType": "address",
          "name": "newOwner",
          "type": "address"
        }
      ],
      "name": "OwnershipTransferred",
      "type": "event"
    },
    {
      "anonymous": false,
      "inputs": [
        {
          "indexed": false,
          "internalType": "address",
          "name": "buyer",
          "type": "address"
        },
        {
          "indexed": false,
          "internalType": "uint256",
          "name": "amount",
          "type": "uint256"
        }
      ],
      "name": "Sold",
      "type": "event"
    },
    {
      "inputs": [],
      "name": "TOKEN_PRICE",
      "outputs": [
        {
          "internalType": "uint256",
          "name": "",
          "type": "uint256"
        }
      ],
      "stateMutability": "view",
      "type": "function"
    },
    {
      "inputs": [],
      "name": "TOTAL_SUPPLY",
      "outputs": [
        {
          "internalType": "uint256",
          "name": "",
          "type": "uint256"
        }
      ],
      "stateMutability": "view",
      "type": "function"
    },
    {
      "inputs": [
        {
          "internalType": "uint256",
          "name": "_numberOfTokens",
          "type": "uint256"
        }
      ],
      "name": "buyTokens",
      "outputs": [],
      "stateMutability": "payable",
      "type": "function"
    },
    {
      "inputs": [],
      "name": "owner",
      "outputs": [
        {
          "internalType": "address",
          "name": "",
          "type": "address"
        }
      ],
      "stateMutability": "view",
      "type": "function"
    },
    {
      "inputs": [],
      "name": "renounceOwnership",
      "outputs": [],
      "stateMutability": "nonpayable",
      "type": "function"
    },
    {
      "inputs": [],
      "name": "token",
      "outputs": [
        {
          "internalType": "contract IERC20",
          "name": "",
          "type": "address"
        }
      ],
      "stateMutability": "view",
      "type": "function"
    },
    {
      "inputs": [],
      "name": "tokensSold",
      "outputs": [
        {
          "internalType": "uint256",
          "name": "",
          "type": "uint256"
        }
      ],
      "stateMutability": "view",
      "type": "function"
    },
    {
      "inputs": [
        {
          "internalType": "address",
          "name": "newOwner",
          "type": "address"
        }
      ],
      "name": "transferOwnership",
      "outputs": [],
      "stateMutability": "nonpayable",
      "type": "function"
    },
    {
      "inputs": [],
      "name": "withdrawMatic",
      "outputs": [],
      "stateMutability": "nonpayable",
      "type": "function"
    },
    {
      "inputs": [],
      "name": "withdrawTokens",
      "outputs": [],
      "stateMutability": "nonpayable",
      "type": "function"
    }
  ],
  "bytecode": "0x60806040523480156200001157600080fd5b5060405162000e8838038062000e888339818101604052810190620000379190620001d5565b620000576200004b6200009f60201b60201c565b620000a760201b60201c565b80600260006101000a81548173ffffffffffffffffffffffffffffffffffffffff021916908373ffffffffffffffffffffffffffffffffffffffff1602179055505062000207565b600033905090565b60008060009054906101000a900473ffffffffffffffffffffffffffffffffffffffff169050816000806101000a81548173ffffffffffffffffffffffffffffffffffffffff021916908373ffffffffffffffffffffffffffffffffffffffff1602179055508173ffffffffffffffffffffffffffffffffffffffff168173ffffffffffffffffffffffffffffffffffffffff167f8be0079c531659141344cd1fd0a4f28419497f9722a3daafe3b4186f6b6457e060405160405180910390a35050565b600080fd5b600073ffffffffffffffffffffffffffffffffffffffff82169050919050565b60006200019d8262000170565b9050919050565b620001af8162000190565b8114620001bb57600080fd5b50565b600081519050620001cf81620001a4565b92915050565b600060208284031215620001ee57620001ed6200016b565b5b6000620001fe84828501620001be565b91505092915050565b610c7180620002176000396000f3fe6080604052600436106100915760003560e01c80638da5cb5b116100595780638da5cb5b14610122578063902d55a51461014d578063d2d8cb6714610178578063f2fde38b146101a3578063fc0c546a146101cc57610091565b80633610724e14610096578063518ab2a8146100b2578063715018a6146100dd578063810074c6146100f45780638d8f2adb1461010b575b600080fd5b6100b060048036038101906100ab9190610767565b6101f7565b005b3480156100be57600080fd5b506100c76103b1565b6040516100d491906107a3565b60405180910390f35b3480156100e957600080fd5b506100f26103b7565b005b34801561010057600080fd5b506101096103cb565b005b34801561011757600080fd5b50610120610423565b005b34801561012e57600080fd5b506101376104f4565b60405161014491906107ff565b60405180910390f35b34801561015957600080fd5b5061016261051d565b60405161016f91906107a3565b60405180910390f35b34801561018457600080fd5b5061018d61052d565b60405161019a91906107a3565b60405180910390f35b3480156101af57600080fd5b506101ca60048036038101906101c59190610846565b610539565b005b3480156101d857600080fd5b506101e16105bc565b6040516101ee91906108d2565b60405180910390f35b67016345785d8a00008161020b919061091c565b341461024c576040517f08c379a0000000000000000000000000000000000000000000000000000000008152600401610243906109bb565b60405180910390fd5b6b033b2e3c9fd0803ce80000008160015461026791906109db565b11156102a8576040517f08c379a000000000000000000000000000000000000000000000000000000000815260040161029f90610a5b565b60405180910390fd5b80600160008282546102ba91906109db565b92505081905550600260009054906101000a900473ffffffffffffffffffffffffffffffffffffffff1673ffffffffffffffffffffffffffffffffffffffff1663a9059cbb33670de0b6b3a764000084610314919061091c565b6040518363ffffffff1660e01b8152600401610331929190610a7b565b6020604051808303816000875af1158015610350573d6000803e3d6000fd5b505050506040513d601f19601f820116820180604052508101906103749190610adc565b507fae92ab4b6f8f401ead768d3273e6bb937a13e39827d19c6376e8fd4512a05d9a33826040516103a6929190610a7b565b60405180910390a150565b60015481565b6103bf6105e2565b6103c96000610660565b565b6103d36105e2565b6103db6104f4565b73ffffffffffffffffffffffffffffffffffffffff166108fc479081150290604051600060405180830381858888f19350505050158015610420573d6000803e3d6000fd5b50565b61042b6105e2565b60006001546b033b2e3c9fd0803ce80000006104479190610b09565b9050600260009054906101000a900473ffffffffffffffffffffffffffffffffffffffff1673ffffffffffffffffffffffffffffffffffffffff1663a9059cbb61048f6104f4565b836040518363ffffffff1660e01b81526004016104ad929190610a7b565b6020604051808303816000875af11580156104cc573d6000803e3d6000fd5b505050506040513d601f19601f820116820180604052508101906104f09190610adc565b5050565b60008060009054906101000a900473ffffffffffffffffffffffffffffffffffffffff16905090565b6b033b2e3c9fd0803ce800000081565b67016345785d8a000081565b6105416105e2565b600073ffffffffffffffffffffffffffffffffffffffff168173ffffffffffffffffffffffffffffffffffffffff16036105b0576040517f08c379a00000000000000000000000000000000000000000000000000000000081526004016105a790610baf565b60405180910390fd5b6105b981610660565b50565b600260009054906101000a900473ffffffffffffffffffffffffffffffffffffffff1681565b6105ea610724565b73ffffffffffffffffffffffffffffffffffffffff166106086104f4565b73ffffffffffffffffffffffffffffffffffffffff161461065e576040517f08c379a000000000000000000000000000000000000000000000000000000000815260040161065590610c1b565b60405180910390fd5b565b60008060009054906101000a900473ffffffffffffffffffffffffffffffffffffffff169050816000806101000a81548173ffffffffffffffffffffffffffffffffffffffff021916908373ffffffffffffffffffffffffffffffffffffffff1602179055508173ffffffffffffffffffffffffffffffffffffffff168173ffffffffffffffffffffffffffffffffffffffff167f8be0079c531659141344cd1fd0a4f28419497f9722a3daafe3b4186f6b6457e060405160405180910390a35050565b600033905090565b600080fd5b6000819050919050565b61074481610731565b811461074f57600080fd5b50565b6000813590506107618161073b565b92915050565b60006020828403121561077d5761077c61072c565b5b600061078b84828501610752565b91505092915050565b61079d81610731565b82525050565b60006020820190506107b86000830184610794565b92915050565b600073ffffffffffffffffffffffffffffffffffffffff82169050919050565b60006107e9826107be565b9050919050565b6107f9816107de565b82525050565b600060208201905061081460008301846107f0565b92915050565b610823816107de565b811461082e57600080fd5b50565b6000813590506108408161081a565b92915050565b60006020828403121561085c5761085b61072c565b5b600061086a84828501610831565b91505092915050565b6000819050919050565b600061089861089361088e846107be565b610873565b6107be565b9050919050565b60006108aa8261087d565b9050919050565b60006108bc8261089f565b9050919050565b6108cc816108b1565b82525050565b60006020820190506108e760008301846108c3565b92915050565b7f4e487b7100000000000000000000000000000000000000000000000000000000600052601160045260246000fd5b600061092782610731565b915061093283610731565b925082820261094081610731565b91508282048414831517610957576109566108ed565b5b5092915050565b600082825260208201905092915050565b7f496e76616c696420616d6f756e74206f66204d617469632073656e7400000000600082015250565b60006109a5601c8361095e565b91506109b08261096f565b602082019050919050565b600060208201905081810360008301526109d481610998565b9050919050565b60006109e682610731565b91506109f183610731565b9250828201905080821115610a0957610a086108ed565b5b92915050565b7f4e6f7420656e6f75676820746f6b656e7320617661696c61626c650000000000600082015250565b6000610a45601b8361095e565b9150610a5082610a0f565b602082019050919050565b60006020820190508181036000830152610a7481610a38565b9050919050565b6000604082019050610a9060008301856107f0565b610a9d6020830184610794565b9392505050565b60008115159050919050565b610ab981610aa4565b8114610ac457600080fd5b50565b600081519050610ad681610ab0565b92915050565b600060208284031215610af257610af161072c565b5b6000610b0084828501610ac7565b91505092915050565b6000610b1482610731565b9150610b1f83610731565b9250828203905081811115610b3757610b366108ed565b5b92915050565b7f4f776e61626c653a206e6577206f776e657220697320746865207a65726f206160008201527f6464726573730000000000000000000000000000000000000000000000000000602082015250565b6000610b9960268361095e565b9150610ba482610b3d565b604082019050919050565b60006020820190508181036000830152610bc881610b8c565b9050919050565b7f4f776e61626c653a2063616c6c6572206973206e6f7420746865206f776e6572600082015250565b6000610c0560208361095e565b9150610c1082610bcf565b602082019050919050565b60006020820190508181036000830152610c3481610bf8565b905091905056fea26469706673582212206ce8696754305b82cd0d2910c78e9da3c376ff5284772d9a0a52a74180974a5364736f6c63430008120033",
  "linkReferences": {},
  "deployedLinkReferences": {}
}